{
  "contractName": "GarewaToken",
  "abi": [
    {
      "inputs": [],
      "payable": false,
      "stateMutability": "nonpayable",
      "type": "constructor"
    },
    {
      "constant": true,
      "inputs": [],
      "name": "totalSupply",
      "outputs": [
        {
          "internalType": "uint256",
          "name": "",
          "type": "uint256"
        }
      ],
      "payable": false,
      "stateMutability": "view",
      "type": "function"
    }
  ],
  "bytecode": "0x6080604052348015600f57600080fd5b50620f42406000819055506084806100286000396000f3fe6080604052348015600f57600080fd5b506004361060285760003560e01c806318160ddd14602d575b600080fd5b60336049565b6040518082815260200191505060405180910390f35b6000548156fea265627a7a72315820515b61d77e8c17792c53427a7825cc0770170bd371174a38ce88a7a5d7590bac64736f6c63430005100032",
  "source": "pragma solidity ^0.5.0;\r\n\r\ncontract GarewaToken{\r\n   // Constructor to set the value for number of tokens available\r\n   // Set the tokens\r\n   // Read the total number of tokens\r\n\r\n   uint256 public totalSupply;\r\n\r\n   constructor () public{\r\n       // a state variable available everywhere in SC\r\n       totalSupply=1000000;\r\n   }\r\n}\r\n",
  "sourcePath": "C:\\Users\\devsu\\Desktop\\Blockchain\\erc20_build_own_cryptocurrency\\mock_token\\contracts\\GarewaToken.sol",
  "compiler": {
    "name": "solc",
    "version": "0.5.16+commit.9c3226ce.Emscripten.clang"
  },
  "schemaVersion": "3.0.23",
  "updatedAt": "2021-05-21T13:43:56.075Z",
  "networkType": "ethereum",
  "devdoc": {
    "methods": {}
  },
  "userdoc": {
    "methods": {}
  }
}